{
  "_format": "hh-sol-artifact-1",
  "contractName": "VotingSystem",
  "sourceName": "contracts/VotingSystem.sol",
  "abi": [
    {
      "inputs": [
        {
          "internalType": "string[]",
          "name": "_candidateNames",
          "type": "string[]"
        }
      ],
      "stateMutability": "nonpayable",
      "type": "constructor"
    },
    {
      "anonymous": false,
      "inputs": [
        {
          "indexed": false,
          "internalType": "address",
          "name": "voter",
          "type": "address"
        },
        {
          "indexed": false,
          "internalType": "string",
          "name": "candidateName",
          "type": "string"
        }
      ],
      "name": "VoteCasted",
      "type": "event"
    },
    {
      "inputs": [],
      "name": "admin",
      "outputs": [
        {
          "internalType": "address",
          "name": "",
          "type": "address"
        }
      ],
      "stateMutability": "view",
      "type": "function"
    },
    {
      "inputs": [
        {
          "internalType": "uint256",
          "name": "",
          "type": "uint256"
        }
      ],
      "name": "candidates",
      "outputs": [
        {
          "internalType": "string",
          "name": "name",
          "type": "string"
        },
        {
          "internalType": "uint256",
          "name": "voteCount",
          "type": "uint256"
        }
      ],
      "stateMutability": "view",
      "type": "function"
    },
    {
      "inputs": [
        {
          "internalType": "uint256",
          "name": "index",
          "type": "uint256"
        }
      ],
      "name": "getCandidate",
      "outputs": [
        {
          "internalType": "string",
          "name": "name",
          "type": "string"
        },
        {
          "internalType": "uint256",
          "name": "votes",
          "type": "uint256"
        }
      ],
      "stateMutability": "view",
      "type": "function"
    },
    {
      "inputs": [],
      "name": "getCandidateCount",
      "outputs": [
        {
          "internalType": "uint256",
          "name": "",
          "type": "uint256"
        }
      ],
      "stateMutability": "view",
      "type": "function"
    },
    {
      "inputs": [],
      "name": "getWinner",
      "outputs": [
        {
          "internalType": "string",
          "name": "",
          "type": "string"
        }
      ],
      "stateMutability": "view",
      "type": "function"
    },
    {
      "inputs": [
        {
          "internalType": "uint256",
          "name": "_candidateIndex",
          "type": "uint256"
        }
      ],
      "name": "vote",
      "outputs": [],
      "stateMutability": "nonpayable",
      "type": "function"
    }
  ],
  "bytecode": "0x60806040523480156200001157600080fd5b50604051620012f3380380620012f38339818101604052810190620000379190620003b3565b336000806101000a81548173ffffffffffffffffffffffffffffffffffffffff021916908373ffffffffffffffffffffffffffffffffffffffff16021790555060005b81518110156200011c5760026040518060400160405280848481518110620000a757620000a662000404565b5b60200260200101518152602001600081525090806001815401808255809150506001900390600052602060002090600202016000909190919091506000820151816000019081620000f991906200067e565b506020820151816001015550508080620001139062000794565b9150506200007a565b5050620007e1565b6000604051905090565b600080fd5b600080fd5b600080fd5b6000601f19601f8301169050919050565b7f4e487b7100000000000000000000000000000000000000000000000000000000600052604160045260246000fd5b62000188826200013d565b810181811067ffffffffffffffff82111715620001aa57620001a96200014e565b5b80604052505050565b6000620001bf62000124565b9050620001cd82826200017d565b919050565b600067ffffffffffffffff821115620001f057620001ef6200014e565b5b602082029050602081019050919050565b600080fd5b600080fd5b600067ffffffffffffffff8211156200022957620002286200014e565b5b62000234826200013d565b9050602081019050919050565b60005b838110156200026157808201518184015260208101905062000244565b60008484015250505050565b6000620002846200027e846200020b565b620001b3565b905082815260208101848484011115620002a357620002a262000206565b5b620002b084828562000241565b509392505050565b600082601f830112620002d057620002cf62000138565b5b8151620002e28482602086016200026d565b91505092915050565b600062000302620002fc84620001d2565b620001b3565b9050808382526020820190506020840283018581111562000328576200032762000201565b5b835b818110156200037657805167ffffffffffffffff81111562000351576200035062000138565b5b808601620003608982620002b8565b855260208501945050506020810190506200032a565b5050509392505050565b600082601f83011262000398576200039762000138565b5b8151620003aa848260208601620002eb565b91505092915050565b600060208284031215620003cc57620003cb6200012e565b5b600082015167ffffffffffffffff811115620003ed57620003ec62000133565b5b620003fb8482850162000380565b91505092915050565b7f4e487b7100000000000000000000000000000000000000000000000000000000600052603260045260246000fd5b600081519050919050565b7f4e487b7100000000000000000000000000000000000000000000000000000000600052602260045260246000fd5b600060028204905060018216806200048657607f821691505b6020821081036200049c576200049b6200043e565b5b50919050565b60008190508160005260206000209050919050565b60006020601f8301049050919050565b600082821b905092915050565b600060088302620005067fffffffffffffffffffffffffffffffffffffffffffffffffffffffffffffffff82620004c7565b620005128683620004c7565b95508019841693508086168417925050509392505050565b6000819050919050565b6000819050919050565b60006200055f6200055962000553846200052a565b62000534565b6200052a565b9050919050565b6000819050919050565b6200057b836200053e565b620005936200058a8262000566565b848454620004d4565b825550505050565b600090565b620005aa6200059b565b620005b781848462000570565b505050565b5b81811015620005df57620005d3600082620005a0565b600181019050620005bd565b5050565b601f8211156200062e57620005f881620004a2565b6200060384620004b7565b8101602085101562000613578190505b6200062b6200062285620004b7565b830182620005bc565b50505b505050565b600082821c905092915050565b6000620006536000198460080262000633565b1980831691505092915050565b60006200066e838362000640565b9150826002028217905092915050565b620006898262000433565b67ffffffffffffffff811115620006a557620006a46200014e565b5b620006b182546200046d565b620006be828285620005e3565b600060209050601f831160018114620006f65760008415620006e1578287015190505b620006ed858262000660565b8655506200075d565b601f1984166200070686620004a2565b60005b82811015620007305784890151825560018201915060208501945060208101905062000709565b868310156200075057848901516200074c601f89168262000640565b8355505b6001600288020188555050505b505050505050565b7f4e487b7100000000000000000000000000000000000000000000000000000000600052601160045260246000fd5b6000620007a1826200052a565b91507fffffffffffffffffffffffffffffffffffffffffffffffffffffffffffffffff8203620007d657620007d562000765565b5b600182019050919050565b610b0280620007f16000396000f3fe608060405234801561001057600080fd5b50600436106100625760003560e01c80630121b93f1461006757806330a56347146100835780633477ee2e146100a157806335b8e820146100d25780638e7ea5b214610103578063f851a44014610121575b600080fd5b610081600480360381019061007c9190610690565b61013f565b005b61008b610305565b60405161009891906106cc565b60405180910390f35b6100bb60048036038101906100b69190610690565b610312565b6040516100c9929190610777565b60405180910390f35b6100ec60048036038101906100e79190610690565b6103ce565b6040516100fa929190610777565b60405180910390f35b61010b6104fa565b60405161011891906107a7565b60405180910390f35b610129610631565b604051610136919061080a565b60405180910390f35b600160003373ffffffffffffffffffffffffffffffffffffffff1673ffffffffffffffffffffffffffffffffffffffff16815260200190815260200160002060009054906101000a900460ff16156101cc576040517f08c379a00000000000000000000000000000000000000000000000000000000081526004016101c390610871565b60405180910390fd5b6002805490508110610213576040517f08c379a000000000000000000000000000000000000000000000000000000000815260040161020a90610871565b60405180910390fd5b6002818154811061022757610226610891565b5b90600052602060002090600202016001016000815480929190610249906108ef565b919050555060018060003373ffffffffffffffffffffffffffffffffffffffff1673ffffffffffffffffffffffffffffffffffffffff16815260200190815260200160002060006101000a81548160ff0219169083151502179055507fb7821d50dfbda5ea310faebbeac5217bc1bb0cabe463e76b80e48d11e57df09833600283815481106102db576102da610891565b5b90600052602060002090600202016000016040516102fa929190610a30565b60405180910390a150565b6000600280549050905090565b6002818154811061032257600080fd5b906000526020600020906002020160009150905080600001805461034590610966565b80601f016020809104026020016040519081016040528092919081815260200182805461037190610966565b80156103be5780601f10610393576101008083540402835291602001916103be565b820191906000526020600020905b8154815290600101906020018083116103a157829003601f168201915b5050505050908060010154905082565b606060006002805490508310610419576040517f08c379a000000000000000000000000000000000000000000000000000000000815260040161041090610aac565b60405180910390fd5b60006002848154811061042f5761042e610891565b5b906000526020600020906002020160405180604001604052908160008201805461045890610966565b80601f016020809104026020016040519081016040528092919081815260200182805461048490610966565b80156104d15780601f106104a6576101008083540402835291602001916104d1565b820191906000526020600020905b8154815290600101906020018083116104b457829003601f168201915b505050505081526020016001820154815250509050806000015181602001519250925050915091565b606060008060005b60028054905081101561057b57826002828154811061052457610523610891565b5b906000526020600020906002020160010154111561056857600281815481106105505761054f610891565b5b90600052602060002090600202016001015492508091505b8080610573906108ef565b915050610502565b50600281815481106105905761058f610891565b5b906000526020600020906002020160000180546105ac90610966565b80601f01602080910402602001604051908101604052809291908181526020018280546105d890610966565b80156106255780601f106105fa57610100808354040283529160200191610625565b820191906000526020600020905b81548152906001019060200180831161060857829003601f168201915b50505050509250505090565b60008054906101000a900473ffffffffffffffffffffffffffffffffffffffff1681565b600080fd5b6000819050919050565b61066d8161065a565b811461067857600080fd5b50565b60008135905061068a81610664565b92915050565b6000602082840312156106a6576106a5610655565b5b60006106b48482850161067b565b91505092915050565b6106c68161065a565b82525050565b60006020820190506106e160008301846106bd565b92915050565b600081519050919050565b600082825260208201905092915050565b60005b83811015610721578082015181840152602081019050610706565b60008484015250505050565b6000601f19601f8301169050919050565b6000610749826106e7565b61075381856106f2565b9350610763818560208601610703565b61076c8161072d565b840191505092915050565b60006040820190508181036000830152610791818561073e565b90506107a060208301846106bd565b9392505050565b600060208201905081810360008301526107c1818461073e565b905092915050565b600073ffffffffffffffffffffffffffffffffffffffff82169050919050565b60006107f4826107c9565b9050919050565b610804816107e9565b82525050565b600060208201905061081f60008301846107fb565b92915050565b7f6e6f000000000000000000000000000000000000000000000000000000000000600082015250565b600061085b6002836106f2565b915061086682610825565b602082019050919050565b6000602082019050818103600083015261088a8161084e565b9050919050565b7f4e487b7100000000000000000000000000000000000000000000000000000000600052603260045260246000fd5b7f4e487b7100000000000000000000000000000000000000000000000000000000600052601160045260246000fd5b60006108fa8261065a565b91507fffffffffffffffffffffffffffffffffffffffffffffffffffffffffffffffff820361092c5761092b6108c0565b5b600182019050919050565b7f4e487b7100000000000000000000000000000000000000000000000000000000600052602260045260246000fd5b6000600282049050600182168061097e57607f821691505b60208210810361099157610990610937565b5b50919050565b60008190508160005260206000209050919050565b600081546109b981610966565b6109c381866106f2565b945060018216600081146109de57600181146109f457610a27565b60ff198316865281151560200286019350610a27565b6109fd85610997565b60005b83811015610a1f57815481890152600182019150602081019050610a00565b808801955050505b50505092915050565b6000604082019050610a4560008301856107fb565b8181036020830152610a5781846109ac565b90509392505050565b7f496e76616c696420696e64657800000000000000000000000000000000000000600082015250565b6000610a96600d836106f2565b9150610aa182610a60565b602082019050919050565b60006020820190508181036000830152610ac581610a89565b905091905056fea26469706673582212207fa0367a679fa0320baf8ca45b071cfbfbdbdd2e856740cb4fa3896f39a8154b64736f6c63430008140033",
  "linkReferences": {},
  "deployedLinkReferences": {}
}